{
  "_format": "hh-sol-artifact-1",
  "contractName": "APIListing",
  "sourceName": "contracts/ListAPI.sol",
  "abi": [
    {
      "anonymous": false,
      "inputs": [
        {
          "indexed": true,
          "internalType": "uint256",
          "name": "apiId",
          "type": "uint256"
        },
        {
          "indexed": false,
          "internalType": "string",
          "name": "name",
          "type": "string"
        },
        {
          "indexed": false,
          "internalType": "string",
          "name": "price",
          "type": "string"
        }
      ],
      "name": "APIAdded",
      "type": "event"
    },
    {
      "anonymous": false,
      "inputs": [
        {
          "indexed": true,
          "internalType": "uint256",
          "name": "apiId",
          "type": "uint256"
        }
      ],
      "name": "APIDeleted",
      "type": "event"
    },
    {
      "anonymous": false,
      "inputs": [
        {
          "indexed": true,
          "internalType": "uint256",
          "name": "apiId",
          "type": "uint256"
        },
        {
          "indexed": false,
          "internalType": "string",
          "name": "name",
          "type": "string"
        },
        {
          "indexed": false,
          "internalType": "string",
          "name": "price",
          "type": "string"
        }
      ],
      "name": "APIUpdated",
      "type": "event"
    },
    {
      "inputs": [
        {
          "internalType": "string",
          "name": "_name",
          "type": "string"
        },
        {
          "internalType": "string",
          "name": "_description",
          "type": "string"
        },
        {
          "internalType": "string",
          "name": "_priceCID",
          "type": "string"
        },
        {
          "internalType": "address",
          "name": "_walletAddress",
          "type": "address"
        },
        {
          "internalType": "string",
          "name": "_image",
          "type": "string"
        }
      ],
      "name": "addAPI",
      "outputs": [],
      "stateMutability": "nonpayable",
      "type": "function"
    },
    {
      "inputs": [
        {
          "internalType": "uint256",
          "name": "",
          "type": "uint256"
        }
      ],
      "name": "apis",
      "outputs": [
        {
          "internalType": "string",
          "name": "name",
          "type": "string"
        },
        {
          "internalType": "string",
          "name": "description",
          "type": "string"
        },
        {
          "internalType": "string",
          "name": "priceCID",
          "type": "string"
        },
        {
          "internalType": "address",
          "name": "walletAddress",
          "type": "address"
        },
        {
          "internalType": "string",
          "name": "image",
          "type": "string"
        }
      ],
      "stateMutability": "view",
      "type": "function"
    },
    {
      "inputs": [
        {
          "internalType": "uint256",
          "name": "_apiId",
          "type": "uint256"
        }
      ],
      "name": "deleteAPI",
      "outputs": [],
      "stateMutability": "nonpayable",
      "type": "function"
    },
    {
      "inputs": [
        {
          "internalType": "uint256",
          "name": "_apiId",
          "type": "uint256"
        }
      ],
      "name": "getAPI",
      "outputs": [
        {
          "components": [
            {
              "internalType": "string",
              "name": "name",
              "type": "string"
            },
            {
              "internalType": "string",
              "name": "description",
              "type": "string"
            },
            {
              "internalType": "string",
              "name": "priceCID",
              "type": "string"
            },
            {
              "internalType": "address",
              "name": "walletAddress",
              "type": "address"
            },
            {
              "internalType": "string",
              "name": "image",
              "type": "string"
            }
          ],
          "internalType": "struct APIListing.API",
          "name": "",
          "type": "tuple"
        }
      ],
      "stateMutability": "view",
      "type": "function"
    },
    {
      "inputs": [],
      "name": "owner",
      "outputs": [
        {
          "internalType": "address",
          "name": "",
          "type": "address"
        }
      ],
      "stateMutability": "view",
      "type": "function"
    },
    {
      "inputs": [],
      "name": "totalAPIs",
      "outputs": [
        {
          "internalType": "uint256",
          "name": "",
          "type": "uint256"
        }
      ],
      "stateMutability": "view",
      "type": "function"
    },
    {
      "inputs": [
        {
          "internalType": "uint256",
          "name": "_apiId",
          "type": "uint256"
        },
        {
          "internalType": "string",
          "name": "_name",
          "type": "string"
        },
        {
          "internalType": "string",
          "name": "_description",
          "type": "string"
        },
        {
          "internalType": "string",
          "name": "_priceCID",
          "type": "string"
        },
        {
          "internalType": "address",
          "name": "_walletAddress",
          "type": "address"
        },
        {
          "internalType": "string",
          "name": "_image",
          "type": "string"
        }
      ],
      "name": "updateAPI",
      "outputs": [],
      "stateMutability": "nonpayable",
      "type": "function"
    }
  ],
  "bytecode": "0x608060405234801561001057600080fd5b50611629806100206000396000f3fe608060405234801561001057600080fd5b506004361061007d5760003560e01c806399f7b79f1161005b57806399f7b79f146100d8578063ac81809514610108578063af6e568914610126578063f6507aae1461015a5761007d565b8063310f1737146100825780637f5b0ce51461009e5780638da5cb5b146100ba575b600080fd5b61009c60048036038101906100979190610fe7565b610176565b005b6100b860048036038101906100b391906110e4565b61030b565b005b6100c2610476565b6040516100cf91906111de565b60405180910390f35b6100f260048036038101906100ed91906111f9565b61049a565b6040516100ff9190611348565b60405180910390f35b6101106107aa565b60405161011d9190611379565b60405180910390f35b610140600480360381019061013b91906111f9565b6107b0565b6040516101519594939291906113de565b60405180910390f35b610174600480360381019061016f91906111f9565b610a26565b005b6001548611156101bb576040517f08c379a00000000000000000000000000000000000000000000000000000000081526004016101b290611499565b60405180910390fd5b6040518060a001604052808681526020018581526020018481526020018373ffffffffffffffffffffffffffffffffffffffff16815260200182815250600260008881526020019081526020016000206000820151816000019080519060200190610227929190610c44565b506020820151816001019080519060200190610244929190610c44565b506040820151816002019080519060200190610261929190610c44565b5060608201518160030160006101000a81548173ffffffffffffffffffffffffffffffffffffffff021916908373ffffffffffffffffffffffffffffffffffffffff16021790555060808201518160040190805190602001906102c5929190610c44565b50905050857fe5d01c51cebdd9dc632723177a615961fb2d30ba20a2a4ca6752242555bf944986856040516102fb9291906114b9565b60405180910390a2505050505050565b6001600081548092919061031e9061151f565b91905055506040518060a001604052808681526020018581526020018481526020018373ffffffffffffffffffffffffffffffffffffffff168152602001828152506002600060015481526020019081526020016000206000820151816000019080519060200190610391929190610c44565b5060208201518160010190805190602001906103ae929190610c44565b5060408201518160020190805190602001906103cb929190610c44565b5060608201518160030160006101000a81548173ffffffffffffffffffffffffffffffffffffffff021916908373ffffffffffffffffffffffffffffffffffffffff160217905550608082015181600401908051906020019061042f929190610c44565b509050506001547f1d0fb89b4396b93b47c759c6b2c74716e5aee32e3a4c11f41cd638eebadc992486856040516104679291906114b9565b60405180910390a25050505050565b60008054906101000a900473ffffffffffffffffffffffffffffffffffffffff1681565b6104a2610cca565b6001548211156104e7576040517f08c379a00000000000000000000000000000000000000000000000000000000081526004016104de90611499565b60405180910390fd5b600260008381526020019081526020016000206040518060a001604052908160008201805461051590611597565b80601f016020809104026020016040519081016040528092919081815260200182805461054190611597565b801561058e5780601f106105635761010080835404028352916020019161058e565b820191906000526020600020905b81548152906001019060200180831161057157829003601f168201915b505050505081526020016001820180546105a790611597565b80601f01602080910402602001604051908101604052809291908181526020018280546105d390611597565b80156106205780601f106105f557610100808354040283529160200191610620565b820191906000526020600020905b81548152906001019060200180831161060357829003601f168201915b5050505050815260200160028201805461063990611597565b80601f016020809104026020016040519081016040528092919081815260200182805461066590611597565b80156106b25780601f10610687576101008083540402835291602001916106b2565b820191906000526020600020905b81548152906001019060200180831161069557829003601f168201915b505050505081526020016003820160009054906101000a900473ffffffffffffffffffffffffffffffffffffffff1673ffffffffffffffffffffffffffffffffffffffff1673ffffffffffffffffffffffffffffffffffffffff16815260200160048201805461072190611597565b80601f016020809104026020016040519081016040528092919081815260200182805461074d90611597565b801561079a5780601f1061076f5761010080835404028352916020019161079a565b820191906000526020600020905b81548152906001019060200180831161077d57829003601f168201915b5050505050815250509050919050565b60015481565b60026020528060005260406000206000915090508060000180546107d390611597565b80601f01602080910402602001604051908101604052809291908181526020018280546107ff90611597565b801561084c5780601f106108215761010080835404028352916020019161084c565b820191906000526020600020905b81548152906001019060200180831161082f57829003601f168201915b50505050509080600101805461086190611597565b80601f016020809104026020016040519081016040528092919081815260200182805461088d90611597565b80156108da5780601f106108af576101008083540402835291602001916108da565b820191906000526020600020905b8154815290600101906020018083116108bd57829003601f168201915b5050505050908060020180546108ef90611597565b80601f016020809104026020016040519081016040528092919081815260200182805461091b90611597565b80156109685780601f1061093d57610100808354040283529160200191610968565b820191906000526020600020905b81548152906001019060200180831161094b57829003601f168201915b5050505050908060030160009054906101000a900473ffffffffffffffffffffffffffffffffffffffff16908060040180546109a390611597565b80601f01602080910402602001604051908101604052809291908181526020018280546109cf90611597565b8015610a1c5780601f106109f157610100808354040283529160200191610a1c565b820191906000526020600020905b8154815290600101906020018083116109ff57829003601f168201915b5050505050905085565b600154811115610a6b576040517f08c379a0000000000000000000000000000000000000000000000000000000008152600401610a6290611499565b60405180910390fd5b600260006001548152602001908152602001600020600260008381526020019081526020016000206000820181600001908054610aa790611597565b610ab2929190610d0f565b506001820181600101908054610ac790611597565b610ad2929190610d0f565b506002820181600201908054610ae790611597565b610af2929190610d0f565b506003820160009054906101000a900473ffffffffffffffffffffffffffffffffffffffff168160030160006101000a81548173ffffffffffffffffffffffffffffffffffffffff021916908373ffffffffffffffffffffffffffffffffffffffff1602179055506004820181600401908054610b6e90611597565b610b79929190610d0f565b5090505060026000600154815260200190815260200160002060008082016000610ba39190610d9c565b600182016000610bb39190610d9c565b600282016000610bc39190610d9c565b6003820160006101000a81549073ffffffffffffffffffffffffffffffffffffffff0219169055600482016000610bfa9190610d9c565b505060016000815480929190610c0f906115c9565b9190505550807fdb8b5864776b7e1a9ee413c5d627f1cb5bf917fe97452a79c4a514fa5b1785b060405160405180910390a250565b828054610c5090611597565b90600052602060002090601f016020900481019282610c725760008555610cb9565b82601f10610c8b57805160ff1916838001178555610cb9565b82800160010185558215610cb9579182015b82811115610cb8578251825591602001919060010190610c9d565b5b509050610cc69190610ddc565b5090565b6040518060a00160405280606081526020016060815260200160608152602001600073ffffffffffffffffffffffffffffffffffffffff168152602001606081525090565b828054610d1b90611597565b90600052602060002090601f016020900481019282610d3d5760008555610d8b565b82601f10610d4e5780548555610d8b565b82800160010185558215610d8b57600052602060002091601f016020900482015b82811115610d8a578254825591600101919060010190610d6f565b5b509050610d989190610ddc565b5090565b508054610da890611597565b6000825580601f10610dba5750610dd9565b601f016020900490600052602060002090810190610dd89190610ddc565b5b50565b5b80821115610df5576000816000905550600101610ddd565b5090565b6000604051905090565b600080fd5b600080fd5b6000819050919050565b610e2081610e0d565b8114610e2b57600080fd5b50565b600081359050610e3d81610e17565b92915050565b600080fd5b600080fd5b6000601f19601f8301169050919050565b7f4e487b7100000000000000000000000000000000000000000000000000000000600052604160045260246000fd5b610e9682610e4d565b810181811067ffffffffffffffff82111715610eb557610eb4610e5e565b5b80604052505050565b6000610ec8610df9565b9050610ed48282610e8d565b919050565b600067ffffffffffffffff821115610ef457610ef3610e5e565b5b610efd82610e4d565b9050602081019050919050565b82818337600083830152505050565b6000610f2c610f2784610ed9565b610ebe565b905082815260208101848484011115610f4857610f47610e48565b5b610f53848285610f0a565b509392505050565b600082601f830112610f7057610f6f610e43565b5b8135610f80848260208601610f19565b91505092915050565b600073ffffffffffffffffffffffffffffffffffffffff82169050919050565b6000610fb482610f89565b9050919050565b610fc481610fa9565b8114610fcf57600080fd5b50565b600081359050610fe181610fbb565b92915050565b60008060008060008060c0878903121561100457611003610e03565b5b600061101289828a01610e2e565b965050602087013567ffffffffffffffff81111561103357611032610e08565b5b61103f89828a01610f5b565b955050604087013567ffffffffffffffff8111156110605761105f610e08565b5b61106c89828a01610f5b565b945050606087013567ffffffffffffffff81111561108d5761108c610e08565b5b61109989828a01610f5b565b93505060806110aa89828a01610fd2565b92505060a087013567ffffffffffffffff8111156110cb576110ca610e08565b5b6110d789828a01610f5b565b9150509295509295509295565b600080600080600060a08688031215611100576110ff610e03565b5b600086013567ffffffffffffffff81111561111e5761111d610e08565b5b61112a88828901610f5b565b955050602086013567ffffffffffffffff81111561114b5761114a610e08565b5b61115788828901610f5b565b945050604086013567ffffffffffffffff81111561117857611177610e08565b5b61118488828901610f5b565b935050606061119588828901610fd2565b925050608086013567ffffffffffffffff8111156111b6576111b5610e08565b5b6111c288828901610f5b565b9150509295509295909350565b6111d881610fa9565b82525050565b60006020820190506111f360008301846111cf565b92915050565b60006020828403121561120f5761120e610e03565b5b600061121d84828501610e2e565b91505092915050565b600081519050919050565b600082825260208201905092915050565b60005b83811015611260578082015181840152602081019050611245565b8381111561126f576000848401525b50505050565b600061128082611226565b61128a8185611231565b935061129a818560208601611242565b6112a381610e4d565b840191505092915050565b6112b781610fa9565b82525050565b600060a08301600083015184820360008601526112da8282611275565b915050602083015184820360208601526112f48282611275565b9150506040830151848203604086015261130e8282611275565b915050606083015161132360608601826112ae565b506080830151848203608086015261133b8282611275565b9150508091505092915050565b6000602082019050818103600083015261136281846112bd565b905092915050565b61137381610e0d565b82525050565b600060208201905061138e600083018461136a565b92915050565b600082825260208201905092915050565b60006113b082611226565b6113ba8185611394565b93506113ca818560208601611242565b6113d381610e4d565b840191505092915050565b600060a08201905081810360008301526113f881886113a5565b9050818103602083015261140c81876113a5565b9050818103604083015261142081866113a5565b905061142f60608301856111cf565b818103608083015261144181846113a5565b90509695505050505050565b7f41504920646f6573206e6f742065786973740000000000000000000000000000600082015250565b6000611483601283611394565b915061148e8261144d565b602082019050919050565b600060208201905081810360008301526114b281611476565b9050919050565b600060408201905081810360008301526114d381856113a5565b905081810360208301526114e781846113a5565b90509392505050565b7f4e487b7100000000000000000000000000000000000000000000000000000000600052601160045260246000fd5b600061152a82610e0d565b91507fffffffffffffffffffffffffffffffffffffffffffffffffffffffffffffffff82141561155d5761155c6114f0565b5b600182019050919050565b7f4e487b7100000000000000000000000000000000000000000000000000000000600052602260045260246000fd5b600060028204905060018216806115af57607f821691505b602082108114156115c3576115c2611568565b5b50919050565b60006115d482610e0d565b915060008214156115e8576115e76114f0565b5b60018203905091905056fea26469706673582212208683fbb41b3e5df889a70d44d0d0ea7551d006e53e56a86abcda15fc3931695064736f6c634300080a0033",
  "linkReferences": {},
  "deployedLinkReferences": {}
}