{
  "_format": "hh-sol-artifact-1",
  "contractName": "APIListing",
  "sourceName": "contracts/API Listing.sol",
  "abi": [
    {
      "anonymous": false,
      "inputs": [
        {
          "indexed": true,
          "internalType": "uint256",
          "name": "apiId",
          "type": "uint256"
        },
        {
          "indexed": false,
          "internalType": "string",
          "name": "name",
          "type": "string"
        },
        {
          "indexed": false,
          "internalType": "string",
          "name": "price",
          "type": "string"
        }
      ],
      "name": "APIAdded",
      "type": "event"
    },
    {
      "anonymous": false,
      "inputs": [
        {
          "indexed": true,
          "internalType": "uint256",
          "name": "apiId",
          "type": "uint256"
        }
      ],
      "name": "APIDeleted",
      "type": "event"
    },
    {
      "anonymous": false,
      "inputs": [
        {
          "indexed": true,
          "internalType": "uint256",
          "name": "apiId",
          "type": "uint256"
        },
        {
          "indexed": false,
          "internalType": "string",
          "name": "name",
          "type": "string"
        },
        {
          "indexed": false,
          "internalType": "string",
          "name": "price",
          "type": "string"
        }
      ],
      "name": "APIUpdated",
      "type": "event"
    },
    {
      "inputs": [
        {
          "internalType": "string",
          "name": "_name",
          "type": "string"
        },
        {
          "internalType": "string",
          "name": "_description",
          "type": "string"
        },
        {
          "internalType": "string",
          "name": "_priceCID",
          "type": "string"
        },
        {
          "internalType": "address",
          "name": "_walletAddress",
          "type": "address"
        },
        {
          "internalType": "string",
          "name": "_image",
          "type": "string"
        }
      ],
      "name": "addAPI",
      "outputs": [],
      "stateMutability": "nonpayable",
      "type": "function"
    },
    {
      "inputs": [
        {
          "internalType": "uint256",
          "name": "",
          "type": "uint256"
        }
      ],
      "name": "apis",
      "outputs": [
        {
          "internalType": "string",
          "name": "name",
          "type": "string"
        },
        {
          "internalType": "string",
          "name": "description",
          "type": "string"
        },
        {
          "internalType": "string",
          "name": "priceCID",
          "type": "string"
        },
        {
          "internalType": "address",
          "name": "walletAddress",
          "type": "address"
        },
        {
          "internalType": "string",
          "name": "image",
          "type": "string"
        }
      ],
      "stateMutability": "view",
      "type": "function"
    },
    {
      "inputs": [
        {
          "internalType": "address",
          "name": "",
          "type": "address"
        },
        {
          "internalType": "uint256",
          "name": "",
          "type": "uint256"
        }
      ],
      "name": "apisByAddress",
      "outputs": [
        {
          "internalType": "uint256",
          "name": "",
          "type": "uint256"
        }
      ],
      "stateMutability": "view",
      "type": "function"
    },
    {
      "inputs": [
        {
          "internalType": "uint256",
          "name": "_apiId",
          "type": "uint256"
        }
      ],
      "name": "deleteAPI",
      "outputs": [],
      "stateMutability": "nonpayable",
      "type": "function"
    },
    {
      "inputs": [
        {
          "internalType": "uint256",
          "name": "_apiId",
          "type": "uint256"
        }
      ],
      "name": "getAPI",
      "outputs": [
        {
          "components": [
            {
              "internalType": "string",
              "name": "name",
              "type": "string"
            },
            {
              "internalType": "string",
              "name": "description",
              "type": "string"
            },
            {
              "internalType": "string",
              "name": "priceCID",
              "type": "string"
            },
            {
              "internalType": "address",
              "name": "walletAddress",
              "type": "address"
            },
            {
              "internalType": "string",
              "name": "image",
              "type": "string"
            }
          ],
          "internalType": "struct APIListing.API",
          "name": "",
          "type": "tuple"
        }
      ],
      "stateMutability": "view",
      "type": "function"
    },
    {
      "inputs": [
        {
          "internalType": "address",
          "name": "_walletAddress",
          "type": "address"
        }
      ],
      "name": "getAPIsForAddress",
      "outputs": [
        {
          "components": [
            {
              "internalType": "string",
              "name": "name",
              "type": "string"
            },
            {
              "internalType": "string",
              "name": "description",
              "type": "string"
            },
            {
              "internalType": "string",
              "name": "priceCID",
              "type": "string"
            },
            {
              "internalType": "address",
              "name": "walletAddress",
              "type": "address"
            },
            {
              "internalType": "string",
              "name": "image",
              "type": "string"
            }
          ],
          "internalType": "struct APIListing.API[]",
          "name": "",
          "type": "tuple[]"
        }
      ],
      "stateMutability": "view",
      "type": "function"
    },
    {
      "inputs": [],
      "name": "owner",
      "outputs": [
        {
          "internalType": "address",
          "name": "",
          "type": "address"
        }
      ],
      "stateMutability": "view",
      "type": "function"
    },
    {
      "inputs": [],
      "name": "totalAPIs",
      "outputs": [
        {
          "internalType": "uint256",
          "name": "",
          "type": "uint256"
        }
      ],
      "stateMutability": "view",
      "type": "function"
    },
    {
      "inputs": [
        {
          "internalType": "uint256",
          "name": "_apiId",
          "type": "uint256"
        },
        {
          "internalType": "string",
          "name": "_name",
          "type": "string"
        },
        {
          "internalType": "string",
          "name": "_description",
          "type": "string"
        },
        {
          "internalType": "string",
          "name": "_priceCID",
          "type": "string"
        },
        {
          "internalType": "address",
          "name": "_walletAddress",
          "type": "address"
        },
        {
          "internalType": "string",
          "name": "_image",
          "type": "string"
        }
      ],
      "name": "updateAPI",
      "outputs": [],
      "stateMutability": "nonpayable",
      "type": "function"
    }
  ],
  "bytecode": "0x608060405234801561001057600080fd5b506121b3806100206000396000f3fe608060405234801561001057600080fd5b50600436106100935760003560e01c806399f7b79f1161006657806399f7b79f1461011e578063ac8180951461014e578063af6e56891461016c578063dd295dbd146101a0578063f6507aae146101d057610093565b8063310f1737146100985780637f5b0ce5146100b457806382ecdb26146100d05780638da5cb5b14610100575b600080fd5b6100b260048036038101906100ad91906114d2565b6101ec565b005b6100ce60048036038101906100c991906115cf565b610409565b005b6100ea60048036038101906100e591906116ba565b6105c0565b6040516100f79190611709565b60405180910390f35b6101086105f1565b6040516101159190611733565b60405180910390f35b6101386004803603810190610133919061174e565b610615565b6040516101459190611894565b60405180910390f35b610156610925565b6040516101639190611709565b60405180910390f35b6101866004803603810190610181919061174e565b61092b565b604051610197959493929190611900565b60405180910390f35b6101ba60048036038101906101b5919061196f565b610ba1565b6040516101c79190611ae9565b60405180910390f35b6101ea60048036038101906101e5919061174e565b610fac565b005b600154861115610231576040517f08c379a000000000000000000000000000000000000000000000000000000000815260040161022890611b57565b60405180910390fd5b3373ffffffffffffffffffffffffffffffffffffffff166002600088815260200190815260200160002060030160009054906101000a900473ffffffffffffffffffffffffffffffffffffffff1673ffffffffffffffffffffffffffffffffffffffff16146102d5576040517f08c379a00000000000000000000000000000000000000000000000000000000081526004016102cc90611be9565b60405180910390fd5b6040518060a001604052808681526020018581526020018481526020018373ffffffffffffffffffffffffffffffffffffffff1681526020018281525060026000888152602001908152602001600020600082015181600001908161033a9190611e15565b5060208201518160010190816103509190611e15565b5060408201518160020190816103669190611e15565b5060608201518160030160006101000a81548173ffffffffffffffffffffffffffffffffffffffff021916908373ffffffffffffffffffffffffffffffffffffffff16021790555060808201518160040190816103c39190611e15565b50905050857fe5d01c51cebdd9dc632723177a615961fb2d30ba20a2a4ca6752242555bf944986856040516103f9929190611ee7565b60405180910390a2505050505050565b6001600081548092919061041c90611f4d565b91905055506040518060a001604052808681526020018581526020018481526020018373ffffffffffffffffffffffffffffffffffffffff1681526020018281525060026000600154815260200190815260200160002060008201518160000190816104889190611e15565b50602082015181600101908161049e9190611e15565b5060408201518160020190816104b49190611e15565b5060608201518160030160006101000a81548173ffffffffffffffffffffffffffffffffffffffff021916908373ffffffffffffffffffffffffffffffffffffffff16021790555060808201518160040190816105119190611e15565b50905050600360008373ffffffffffffffffffffffffffffffffffffffff1673ffffffffffffffffffffffffffffffffffffffff16815260200190815260200160002060015490806001815401808255809150506001900390600052602060002001600090919091909150556001547f1d0fb89b4396b93b47c759c6b2c74716e5aee32e3a4c11f41cd638eebadc992486856040516105b1929190611ee7565b60405180910390a25050505050565b600360205281600052604060002081815481106105dc57600080fd5b90600052602060002001600091509150505481565b60008054906101000a900473ffffffffffffffffffffffffffffffffffffffff1681565b61061d611242565b600154821115610662576040517f08c379a000000000000000000000000000000000000000000000000000000000815260040161065990611b57565b60405180910390fd5b600260008381526020019081526020016000206040518060a001604052908160008201805461069090611c38565b80601f01602080910402602001604051908101604052809291908181526020018280546106bc90611c38565b80156107095780601f106106de57610100808354040283529160200191610709565b820191906000526020600020905b8154815290600101906020018083116106ec57829003601f168201915b5050505050815260200160018201805461072290611c38565b80601f016020809104026020016040519081016040528092919081815260200182805461074e90611c38565b801561079b5780601f106107705761010080835404028352916020019161079b565b820191906000526020600020905b81548152906001019060200180831161077e57829003601f168201915b505050505081526020016002820180546107b490611c38565b80601f01602080910402602001604051908101604052809291908181526020018280546107e090611c38565b801561082d5780601f106108025761010080835404028352916020019161082d565b820191906000526020600020905b81548152906001019060200180831161081057829003601f168201915b505050505081526020016003820160009054906101000a900473ffffffffffffffffffffffffffffffffffffffff1673ffffffffffffffffffffffffffffffffffffffff1673ffffffffffffffffffffffffffffffffffffffff16815260200160048201805461089c90611c38565b80601f01602080910402602001604051908101604052809291908181526020018280546108c890611c38565b80156109155780601f106108ea57610100808354040283529160200191610915565b820191906000526020600020905b8154815290600101906020018083116108f857829003601f168201915b5050505050815250509050919050565b60015481565b600260205280600052604060002060009150905080600001805461094e90611c38565b80601f016020809104026020016040519081016040528092919081815260200182805461097a90611c38565b80156109c75780601f1061099c576101008083540402835291602001916109c7565b820191906000526020600020905b8154815290600101906020018083116109aa57829003601f168201915b5050505050908060010180546109dc90611c38565b80601f0160208091040260200160405190810160405280929190818152602001828054610a0890611c38565b8015610a555780601f10610a2a57610100808354040283529160200191610a55565b820191906000526020600020905b815481529060010190602001808311610a3857829003601f168201915b505050505090806002018054610a6a90611c38565b80601f0160208091040260200160405190810160405280929190818152602001828054610a9690611c38565b8015610ae35780601f10610ab857610100808354040283529160200191610ae3565b820191906000526020600020905b815481529060010190602001808311610ac657829003601f168201915b5050505050908060030160009054906101000a900473ffffffffffffffffffffffffffffffffffffffff1690806004018054610b1e90611c38565b80601f0160208091040260200160405190810160405280929190818152602001828054610b4a90611c38565b8015610b975780601f10610b6c57610100808354040283529160200191610b97565b820191906000526020600020905b815481529060010190602001808311610b7a57829003601f168201915b5050505050905085565b60606000600360008473ffffffffffffffffffffffffffffffffffffffff1673ffffffffffffffffffffffffffffffffffffffff168152602001908152602001600020805480602002602001604051908101604052809291908181526020018280548015610c2e57602002820191906000526020600020905b815481526020019060010190808311610c1a575b505050505090506000815167ffffffffffffffff811115610c5257610c51611349565b5b604051908082528060200260200182016040528015610c8b57816020015b610c78611242565b815260200190600190039081610c705790505b50905060005b8251811015610fa15760026000848381518110610cb157610cb0611f95565b5b602002602001015181526020019081526020016000206040518060a0016040529081600082018054610ce290611c38565b80601f0160208091040260200160405190810160405280929190818152602001828054610d0e90611c38565b8015610d5b5780601f10610d3057610100808354040283529160200191610d5b565b820191906000526020600020905b815481529060010190602001808311610d3e57829003601f168201915b50505050508152602001600182018054610d7490611c38565b80601f0160208091040260200160405190810160405280929190818152602001828054610da090611c38565b8015610ded5780601f10610dc257610100808354040283529160200191610ded565b820191906000526020600020905b815481529060010190602001808311610dd057829003601f168201915b50505050508152602001600282018054610e0690611c38565b80601f0160208091040260200160405190810160405280929190818152602001828054610e3290611c38565b8015610e7f5780601f10610e5457610100808354040283529160200191610e7f565b820191906000526020600020905b815481529060010190602001808311610e6257829003601f168201915b505050505081526020016003820160009054906101000a900473ffffffffffffffffffffffffffffffffffffffff1673ffffffffffffffffffffffffffffffffffffffff1673ffffffffffffffffffffffffffffffffffffffff168152602001600482018054610eee90611c38565b80601f0160208091040260200160405190810160405280929190818152602001828054610f1a90611c38565b8015610f675780601f10610f3c57610100808354040283529160200191610f67565b820191906000526020600020905b815481529060010190602001808311610f4a57829003601f168201915b505050505081525050828281518110610f8357610f82611f95565b5b60200260200101819052508080610f9990611f4d565b915050610c91565b508092505050919050565b600154811115610ff1576040517f08c379a0000000000000000000000000000000000000000000000000000000008152600401610fe890611b57565b60405180910390fd5b3373ffffffffffffffffffffffffffffffffffffffff166002600083815260200190815260200160002060030160009054906101000a900473ffffffffffffffffffffffffffffffffffffffff1673ffffffffffffffffffffffffffffffffffffffff1614611095576040517f08c379a000000000000000000000000000000000000000000000000000000000815260040161108c90612036565b60405180910390fd5b60026000600154815260200190815260200160002060026000838152602001908152602001600020600082018160000190816110d1919061206c565b50600182018160010190816110e6919061206c565b50600282018160020190816110fb919061206c565b506003820160009054906101000a900473ffffffffffffffffffffffffffffffffffffffff168160030160006101000a81548173ffffffffffffffffffffffffffffffffffffffff021916908373ffffffffffffffffffffffffffffffffffffffff16021790555060048201816004019081611177919061206c565b50905050600260006001548152602001908152602001600020600080820160006111a19190611287565b6001820160006111b19190611287565b6002820160006111c19190611287565b6003820160006101000a81549073ffffffffffffffffffffffffffffffffffffffff02191690556004820160006111f89190611287565b50506001600081548092919061120d90612154565b9190505550807fdb8b5864776b7e1a9ee413c5d627f1cb5bf917fe97452a79c4a514fa5b1785b060405160405180910390a250565b6040518060a00160405280606081526020016060815260200160608152602001600073ffffffffffffffffffffffffffffffffffffffff168152602001606081525090565b50805461129390611c38565b6000825580601f106112a557506112c4565b601f0160209004906000526020600020908101906112c391906112c7565b5b50565b5b808211156112e05760008160009055506001016112c8565b5090565b6000604051905090565b600080fd5b600080fd5b6000819050919050565b61130b816112f8565b811461131657600080fd5b50565b60008135905061132881611302565b92915050565b600080fd5b600080fd5b6000601f19601f8301169050919050565b7f4e487b7100000000000000000000000000000000000000000000000000000000600052604160045260246000fd5b61138182611338565b810181811067ffffffffffffffff821117156113a05761139f611349565b5b80604052505050565b60006113b36112e4565b90506113bf8282611378565b919050565b600067ffffffffffffffff8211156113df576113de611349565b5b6113e882611338565b9050602081019050919050565b82818337600083830152505050565b6000611417611412846113c4565b6113a9565b90508281526020810184848401111561143357611432611333565b5b61143e8482856113f5565b509392505050565b600082601f83011261145b5761145a61132e565b5b813561146b848260208601611404565b91505092915050565b600073ffffffffffffffffffffffffffffffffffffffff82169050919050565b600061149f82611474565b9050919050565b6114af81611494565b81146114ba57600080fd5b50565b6000813590506114cc816114a6565b92915050565b60008060008060008060c087890312156114ef576114ee6112ee565b5b60006114fd89828a01611319565b965050602087013567ffffffffffffffff81111561151e5761151d6112f3565b5b61152a89828a01611446565b955050604087013567ffffffffffffffff81111561154b5761154a6112f3565b5b61155789828a01611446565b945050606087013567ffffffffffffffff811115611578576115776112f3565b5b61158489828a01611446565b935050608061159589828a016114bd565b92505060a087013567ffffffffffffffff8111156115b6576115b56112f3565b5b6115c289828a01611446565b9150509295509295509295565b600080600080600060a086880312156115eb576115ea6112ee565b5b600086013567ffffffffffffffff811115611609576116086112f3565b5b61161588828901611446565b955050602086013567ffffffffffffffff811115611636576116356112f3565b5b61164288828901611446565b945050604086013567ffffffffffffffff811115611663576116626112f3565b5b61166f88828901611446565b9350506060611680888289016114bd565b925050608086013567ffffffffffffffff8111156116a1576116a06112f3565b5b6116ad88828901611446565b9150509295509295909350565b600080604083850312156116d1576116d06112ee565b5b60006116df858286016114bd565b92505060206116f085828601611319565b9150509250929050565b611703816112f8565b82525050565b600060208201905061171e60008301846116fa565b92915050565b61172d81611494565b82525050565b60006020820190506117486000830184611724565b92915050565b600060208284031215611764576117636112ee565b5b600061177284828501611319565b91505092915050565b600081519050919050565b600082825260208201905092915050565b60005b838110156117b557808201518184015260208101905061179a565b60008484015250505050565b60006117cc8261177b565b6117d68185611786565b93506117e6818560208601611797565b6117ef81611338565b840191505092915050565b61180381611494565b82525050565b600060a083016000830151848203600086015261182682826117c1565b9150506020830151848203602086015261184082826117c1565b9150506040830151848203604086015261185a82826117c1565b915050606083015161186f60608601826117fa565b506080830151848203608086015261188782826117c1565b9150508091505092915050565b600060208201905081810360008301526118ae8184611809565b905092915050565b600082825260208201905092915050565b60006118d28261177b565b6118dc81856118b6565b93506118ec818560208601611797565b6118f581611338565b840191505092915050565b600060a082019050818103600083015261191a81886118c7565b9050818103602083015261192e81876118c7565b9050818103604083015261194281866118c7565b90506119516060830185611724565b818103608083015261196381846118c7565b90509695505050505050565b600060208284031215611985576119846112ee565b5b6000611993848285016114bd565b91505092915050565b600081519050919050565b600082825260208201905092915050565b6000819050602082019050919050565b600060a08301600083015184820360008601526119e582826117c1565b915050602083015184820360208601526119ff82826117c1565b91505060408301518482036040860152611a1982826117c1565b9150506060830151611a2e60608601826117fa565b5060808301518482036080860152611a4682826117c1565b9150508091505092915050565b6000611a5f83836119c8565b905092915050565b6000602082019050919050565b6000611a7f8261199c565b611a8981856119a7565b935083602082028501611a9b856119b8565b8060005b85811015611ad75784840389528151611ab88582611a53565b9450611ac383611a67565b925060208a01995050600181019050611a9f565b50829750879550505050505092915050565b60006020820190508181036000830152611b038184611a74565b905092915050565b7f41504920646f6573206e6f742065786973740000000000000000000000000000600082015250565b6000611b416012836118b6565b9150611b4c82611b0b565b602082019050919050565b60006020820190508181036000830152611b7081611b34565b9050919050565b7f596f752063616e206f6e6c792075706461746520796f7572206f776e2041504960008201527f7300000000000000000000000000000000000000000000000000000000000000602082015250565b6000611bd36021836118b6565b9150611bde82611b77565b604082019050919050565b60006020820190508181036000830152611c0281611bc6565b9050919050565b7f4e487b7100000000000000000000000000000000000000000000000000000000600052602260045260246000fd5b60006002820490506001821680611c5057607f821691505b602082108103611c6357611c62611c09565b5b50919050565b60008190508160005260206000209050919050565b60006020601f8301049050919050565b600082821b905092915050565b600060088302611ccb7fffffffffffffffffffffffffffffffffffffffffffffffffffffffffffffffff82611c8e565b611cd58683611c8e565b95508019841693508086168417925050509392505050565b6000819050919050565b6000611d12611d0d611d08846112f8565b611ced565b6112f8565b9050919050565b6000819050919050565b611d2c83611cf7565b611d40611d3882611d19565b848454611c9b565b825550505050565b600090565b611d55611d48565b611d60818484611d23565b505050565b5b81811015611d8457611d79600082611d4d565b600181019050611d66565b5050565b601f821115611dc957611d9a81611c69565b611da384611c7e565b81016020851015611db2578190505b611dc6611dbe85611c7e565b830182611d65565b50505b505050565b600082821c905092915050565b6000611dec60001984600802611dce565b1980831691505092915050565b6000611e058383611ddb565b9150826002028217905092915050565b611e1e8261177b565b67ffffffffffffffff811115611e3757611e36611349565b5b611e418254611c38565b611e4c828285611d88565b600060209050601f831160018114611e7f5760008415611e6d578287015190505b611e778582611df9565b865550611edf565b601f198416611e8d86611c69565b60005b82811015611eb557848901518255600182019150602085019450602081019050611e90565b86831015611ed25784890151611ece601f891682611ddb565b8355505b6001600288020188555050505b505050505050565b60006040820190508181036000830152611f0181856118c7565b90508181036020830152611f1581846118c7565b90509392505050565b7f4e487b7100000000000000000000000000000000000000000000000000000000600052601160045260246000fd5b6000611f58826112f8565b91507fffffffffffffffffffffffffffffffffffffffffffffffffffffffffffffffff8203611f8a57611f89611f1e565b5b600182019050919050565b7f4e487b7100000000000000000000000000000000000000000000000000000000600052603260045260246000fd5b7f596f752063616e206f6e6c792064656c65746520796f7572206f776e2041504960008201527f7300000000000000000000000000000000000000000000000000000000000000602082015250565b60006120206021836118b6565b915061202b82611fc4565b604082019050919050565b6000602082019050818103600083015261204f81612013565b9050919050565b60008154905061206581611c38565b9050919050565b81810361207a575050612152565b61208382612056565b67ffffffffffffffff81111561209c5761209b611349565b5b6120a68254611c38565b6120b1828285611d88565b6000601f8311600181146120e057600084156120ce578287015490505b6120d88582611df9565b86555061214b565b601f1984166120ee87611c69565b96506120f986611c69565b60005b82811015612121578489015482556001820191506001850194506020810190506120fc565b8683101561213e578489015461213a601f891682611ddb565b8355505b6001600288020188555050505b5050505050505b565b600061215f826112f8565b91506000820361217257612171611f1e565b5b60018203905091905056fea2646970667358221220b4b7a2bdbf75fc388f5e19450224ba23acc08d9dcef1a6d1677c10c3b365227564736f6c63430008130033",
  "linkReferences": {},
  "deployedLinkReferences": {}
}